{
  "contractName": "UserContract",
  "abi": [
    {
      "inputs": [
        {
          "internalType": "string",
          "name": "email",
          "type": "string"
        },
        {
          "internalType": "string",
          "name": "companyType",
          "type": "string"
        },
        {
          "internalType": "address",
          "name": "accountAddress",
          "type": "address"
        }
      ],
      "payable": false,
      "stateMutability": "nonpayable",
      "type": "constructor"
    },
    {
      "constant": true,
      "inputs": [
        {
          "internalType": "uint256",
          "name": "",
          "type": "uint256"
        }
      ],
      "name": "acceptedIdList",
      "outputs": [
        {
          "internalType": "string",
          "name": "",
          "type": "string"
        }
      ],
      "payable": false,
      "stateMutability": "view",
      "type": "function"
    },
    {
      "constant": true,
      "inputs": [
        {
          "internalType": "string",
          "name": "",
          "type": "string"
        }
      ],
      "name": "fishIdEmailMap",
      "outputs": [
        {
          "internalType": "string",
          "name": "",
          "type": "string"
        }
      ],
      "payable": false,
      "stateMutability": "view",
      "type": "function"
    },
    {
      "constant": true,
      "inputs": [
        {
          "internalType": "string",
          "name": "",
          "type": "string"
        }
      ],
      "name": "fishIdIsUsedMap",
      "outputs": [
        {
          "internalType": "bool",
          "name": "",
          "type": "bool"
        }
      ],
      "payable": false,
      "stateMutability": "view",
      "type": "function"
    },
    {
      "constant": true,
      "inputs": [
        {
          "internalType": "uint256",
          "name": "",
          "type": "uint256"
        }
      ],
      "name": "fishIdList",
      "outputs": [
        {
          "internalType": "string",
          "name": "",
          "type": "string"
        }
      ],
      "payable": false,
      "stateMutability": "view",
      "type": "function"
    },
    {
      "constant": true,
      "inputs": [
        {
          "internalType": "string",
          "name": "",
          "type": "string"
        },
        {
          "internalType": "uint256",
          "name": "",
          "type": "uint256"
        }
      ],
      "name": "isSentMap",
      "outputs": [
        {
          "internalType": "bool",
          "name": "",
          "type": "bool"
        }
      ],
      "payable": false,
      "stateMutability": "view",
      "type": "function"
    },
    {
      "constant": true,
      "inputs": [
        {
          "internalType": "string",
          "name": "",
          "type": "string"
        }
      ],
      "name": "transactionIdMap",
      "outputs": [
        {
          "internalType": "bytes32",
          "name": "",
          "type": "bytes32"
        }
      ],
      "payable": false,
      "stateMutability": "view",
      "type": "function"
    },
    {
      "constant": false,
      "inputs": [
        {
          "internalType": "address",
          "name": "adminAddress",
          "type": "address"
        },
        {
          "internalType": "string",
          "name": "fishId",
          "type": "string"
        },
        {
          "internalType": "string",
          "name": "idAndType",
          "type": "string"
        },
        {
          "internalType": "string",
          "name": "company",
          "type": "string"
        },
        {
          "internalType": "string",
          "name": "city",
          "type": "string"
        },
        {
          "internalType": "string",
          "name": "freshness",
          "type": "string"
        },
        {
          "internalType": "string",
          "name": "ipfs",
          "type": "string"
        },
        {
          "internalType": "string",
          "name": "time",
          "type": "string"
        }
      ],
      "name": "addInfo",
      "outputs": [],
      "payable": false,
      "stateMutability": "nonpayable",
      "type": "function"
    },
    {
      "constant": true,
      "inputs": [],
      "name": "getIndex",
      "outputs": [
        {
          "internalType": "uint256",
          "name": "",
          "type": "uint256"
        },
        {
          "internalType": "string",
          "name": "",
          "type": "string"
        },
        {
          "internalType": "string",
          "name": "",
          "type": "string"
        },
        {
          "internalType": "address",
          "name": "",
          "type": "address"
        },
        {
          "internalType": "uint256",
          "name": "",
          "type": "uint256"
        },
        {
          "internalType": "uint256",
          "name": "",
          "type": "uint256"
        }
      ],
      "payable": false,
      "stateMutability": "view",
      "type": "function"
    },
    {
      "constant": true,
      "inputs": [
        {
          "internalType": "uint256",
          "name": "index",
          "type": "uint256"
        }
      ],
      "name": "getFishIdList",
      "outputs": [
        {
          "internalType": "string",
          "name": "",
          "type": "string"
        }
      ],
      "payable": false,
      "stateMutability": "view",
      "type": "function"
    },
    {
      "constant": true,
      "inputs": [
        {
          "internalType": "string",
          "name": "fishId",
          "type": "string"
        }
      ],
      "name": "getInfo",
      "outputs": [
        {
          "internalType": "string",
          "name": "",
          "type": "string"
        },
        {
          "internalType": "string",
          "name": "",
          "type": "string"
        },
        {
          "internalType": "string",
          "name": "",
          "type": "string"
        },
        {
          "internalType": "string",
          "name": "",
          "type": "string"
        },
        {
          "internalType": "string",
          "name": "",
          "type": "string"
        },
        {
          "internalType": "bool",
          "name": "",
          "type": "bool"
        },
        {
          "internalType": "uint256",
          "name": "",
          "type": "uint256"
        },
        {
          "internalType": "bytes32",
          "name": "",
          "type": "bytes32"
        }
      ],
      "payable": false,
      "stateMutability": "view",
      "type": "function"
    },
    {
      "constant": true,
      "inputs": [],
      "name": "getCompanyType",
      "outputs": [
        {
          "internalType": "string",
          "name": "",
          "type": "string"
        }
      ],
      "payable": false,
      "stateMutability": "view",
      "type": "function"
    },
    {
      "constant": true,
      "inputs": [],
      "name": "getAccountAddress",
      "outputs": [
        {
          "internalType": "address",
          "name": "",
          "type": "address"
        }
      ],
      "payable": false,
      "stateMutability": "view",
      "type": "function"
    },
    {
      "constant": true,
      "inputs": [
        {
          "internalType": "address",
          "name": "infoAddress",
          "type": "address"
        },
        {
          "internalType": "uint256",
          "name": "index",
          "type": "uint256"
        }
      ],
      "name": "getEmail",
      "outputs": [
        {
          "internalType": "string",
          "name": "",
          "type": "string"
        }
      ],
      "payable": false,
      "stateMutability": "view",
      "type": "function"
    },
    {
      "constant": false,
      "inputs": [
        {
          "internalType": "address",
          "name": "infoAddress",
          "type": "address"
        },
        {
          "internalType": "string",
          "name": "email",
          "type": "string"
        },
        {
          "internalType": "string",
          "name": "fishId",
          "type": "string"
        }
      ],
      "name": "sendToEmail",
      "outputs": [],
      "payable": false,
      "stateMutability": "nonpayable",
      "type": "function"
    },
    {
      "constant": true,
      "inputs": [
        {
          "internalType": "address",
          "name": "infoAddress",
          "type": "address"
        },
        {
          "internalType": "string",
          "name": "email",
          "type": "string"
        }
      ],
      "name": "getNextAll",
      "outputs": [
        {
          "internalType": "address",
          "name": "",
          "type": "address"
        },
        {
          "internalType": "string",
          "name": "",
          "type": "string"
        },
        {
          "internalType": "address",
          "name": "",
          "type": "address"
        },
        {
          "internalType": "uint256",
          "name": "",
          "type": "uint256"
        }
      ],
      "payable": false,
      "stateMutability": "view",
      "type": "function"
    },
    {
      "constant": true,
      "inputs": [],
      "name": "getAccepted",
      "outputs": [
        {
          "internalType": "uint256",
          "name": "",
          "type": "uint256"
        }
      ],
      "payable": false,
      "stateMutability": "view",
      "type": "function"
    },
    {
      "constant": false,
      "inputs": [
        {
          "internalType": "string",
          "name": "fishId",
          "type": "string"
        },
        {
          "internalType": "string",
          "name": "email",
          "type": "string"
        }
      ],
      "name": "acceptFishId",
      "outputs": [],
      "payable": false,
      "stateMutability": "nonpayable",
      "type": "function"
    },
    {
      "constant": true,
      "inputs": [
        {
          "internalType": "uint256",
          "name": "accepted",
          "type": "uint256"
        }
      ],
      "name": "getAcceptedFishInfo",
      "outputs": [
        {
          "internalType": "string",
          "name": "",
          "type": "string"
        },
        {
          "internalType": "bool",
          "name": "",
          "type": "bool"
        }
      ],
      "payable": false,
      "stateMutability": "view",
      "type": "function"
    },
    {
      "constant": false,
      "inputs": [
        {
          "internalType": "address",
          "name": "infoAddress",
          "type": "address"
        },
        {
          "internalType": "string",
          "name": "fishId",
          "type": "string"
        }
      ],
      "name": "rejectFishId",
      "outputs": [],
      "payable": false,
      "stateMutability": "nonpayable",
      "type": "function"
    },
    {
      "constant": false,
      "inputs": [
        {
          "internalType": "string",
          "name": "fishId",
          "type": "string"
        },
        {
          "internalType": "bool",
          "name": "isSent",
          "type": "bool"
        }
      ],
      "name": "changeInfoStatus",
      "outputs": [],
      "payable": false,
      "stateMutability": "nonpayable",
      "type": "function"
    },
    {
      "constant": false,
      "inputs": [
        {
          "internalType": "string",
          "name": "fishId",
          "type": "string"
        },
        {
          "internalType": "bytes32",
          "name": "hash",
          "type": "bytes32"
        },
        {
          "internalType": "address",
          "name": "adminAddress",
          "type": "address"
        },
        {
          "internalType": "string",
          "name": "idAndType",
          "type": "string"
        }
      ],
      "name": "saveHash",
      "outputs": [],
      "payable": false,
      "stateMutability": "nonpayable",
      "type": "function"
    },
    {
      "constant": true,
      "inputs": [
        {
          "internalType": "string",
          "name": "fishId",
          "type": "string"
        }
      ],
      "name": "getHash",
      "outputs": [
        {
          "internalType": "bytes32",
          "name": "",
          "type": "bytes32"
        }
      ],
      "payable": false,
      "stateMutability": "view",
      "type": "function"
    }
  ],
  "bytecode": "0x6080604052600060055560006007553480156200001b57600080fd5b506040516200415238038062004152833981810160405260608110156200004157600080fd5b81019080805160405193929190846401000000008211156200006257600080fd5b838201915060208201858111156200007957600080fd5b82518660018202830111640100000000821117156200009757600080fd5b8083526020830192505050908051906020019080838360005b83811015620000cd578082015181840152602081019050620000b0565b50505050905090810190601f168015620000fb5780820380516001836020036101000a031916815260200191505b50604052602001805160405193929190846401000000008211156200011f57600080fd5b838201915060208201858111156200013657600080fd5b82518660018202830111640100000000821117156200015457600080fd5b8083526020830192505050908051906020019080838360005b838110156200018a5780820151818401526020810190506200016d565b50505050905090810190601f168015620001b85780820380516001836020036101000a031916815260200191505b50604052602001805190602001909291905050508260089080519060200190620001e492919062000248565b508160099080519060200190620001fd92919062000248565b5080600a60006101000a81548173ffffffffffffffffffffffffffffffffffffffff021916908373ffffffffffffffffffffffffffffffffffffffff160217905550505050620002f7565b828054600181600116156101000203166002900490600052602060002090601f016020900481019282601f106200028b57805160ff1916838001178555620002bc565b82800160010185558215620002bc579182015b82811115620002bb5782518255916020019190600101906200029e565b5b509050620002cb9190620002cf565b5090565b620002f491905b80821115620002f0576000816000905550600101620002d6565b5090565b90565b613e4b80620003076000396000f3fe608060405234801561001057600080fd5b50600436106101425760003560e01c80637ee005ab116100b8578063b0c71e421161007c578063b0c71e42146115e7578063dc4c77071461171b578063ecca4073146117f6578063ee61750a146118bd578063f196475a14611964578063fc1b967d1461198257610142565b80637ee005ab14610ec757806381045ead146111c4578063a9430eda146112fb578063adaf72a41461146d578063afa106ec1461151457610142565b806344046f831161010a57806344046f83146105d85780634afb84f614610a3e5780635b6beeb914610b0d57806365fc08f914610bdc578063674810f614610d9d5780636ae4f5ff14610e2057610142565b806306cd4909146101475780630e2562d9146102c357806313009e111461030d5780632042ac60146103d45780633cd7b72214610526575b600080fd5b6102c16004803603608081101561015d57600080fd5b810190808035906020019064010000000081111561017a57600080fd5b82018360208201111561018c57600080fd5b803590602001918460018302840111640100000000831117156101ae57600080fd5b91908080601f016020809104026020016040519081016040528093929190818152602001838380828437600081840152601f19601f82011690508083019250505050505050919291929080359060200190929190803573ffffffffffffffffffffffffffffffffffffffff1690602001909291908035906020019064010000000081111561023b57600080fd5b82018360208201111561024d57600080fd5b8035906020019184600183028401116401000000008311171561026f57600080fd5b91908080601f016020809104026020016040519081016040528093929190818152602001838380828437600081840152601f19601f820116905080830192505050505050509192919290505050611a5f565b005b6102cb611bb1565b604051808273ffffffffffffffffffffffffffffffffffffffff1673ffffffffffffffffffffffffffffffffffffffff16815260200191505060405180910390f35b6103d26004803603604081101561032357600080fd5b810190808035906020019064010000000081111561034057600080fd5b82018360208201111561035257600080fd5b8035906020019184600183028401116401000000008311171561037457600080fd5b91908080601f016020809104026020016040519081016040528093929190818152602001838380828437600081840152601f19601f820116905080830192505050505050509192919290803515159060200190929190505050611bdb565b005b610524600480360360408110156103ea57600080fd5b810190808035906020019064010000000081111561040757600080fd5b82018360208201111561041957600080fd5b8035906020019184600183028401116401000000008311171561043b57600080fd5b91908080601f016020809104026020016040519081016040528093929190818152602001838380828437600081840152601f19601f8201169050808301925050505050505091929192908035906020019064010000000081111561049e57600080fd5b8201836020820111156104b057600080fd5b803590602001918460018302840111640100000000831117156104d257600080fd5b91908080601f016020809104026020016040519081016040528093929190818152602001838380828437600081840152601f19601f820116905080830192505050505050509192919290505050611c8d565b005b6105526004803603602081101561053c57600080fd5b8101908080359060200190929190505050611dcd565b604051808060200183151515158152602001828103825284818151815260200191508051906020019080838360005b8381101561059c578082015181840152602081019050610581565b50505050905090810190601f1680156105c95780820380516001836020036101000a031916815260200191505b50935050505060405180910390f35b610a3c60048036036101008110156105ef57600080fd5b81019080803573ffffffffffffffffffffffffffffffffffffffff1690602001909291908035906020019064010000000081111561062c57600080fd5b82018360208201111561063e57600080fd5b8035906020019184600183028401116401000000008311171561066057600080fd5b91908080601f016020809104026020016040519081016040528093929190818152602001838380828437600081840152601f19601f820116905080830192505050505050509192919290803590602001906401000000008111156106c357600080fd5b8201836020820111156106d557600080fd5b803590602001918460018302840111640100000000831117156106f757600080fd5b91908080601f016020809104026020016040519081016040528093929190818152602001838380828437600081840152601f19601f8201169050808301925050505050505091929192908035906020019064010000000081111561075a57600080fd5b82018360208201111561076c57600080fd5b8035906020019184600183028401116401000000008311171561078e57600080fd5b91908080601f016020809104026020016040519081016040528093929190818152602001838380828437600081840152601f19601f820116905080830192505050505050509192919290803590602001906401000000008111156107f157600080fd5b82018360208201111561080357600080fd5b8035906020019184600183028401116401000000008311171561082557600080fd5b91908080601f016020809104026020016040519081016040528093929190818152602001838380828437600081840152601f19601f8201169050808301925050505050505091929192908035906020019064010000000081111561088857600080fd5b82018360208201111561089a57600080fd5b803590602001918460018302840111640100000000831117156108bc57600080fd5b91908080601f016020809104026020016040519081016040528093929190818152602001838380828437600081840152601f19601f8201169050808301925050505050505091929192908035906020019064010000000081111561091f57600080fd5b82018360208201111561093157600080fd5b8035906020019184600183028401116401000000008311171561095357600080fd5b91908080601f016020809104026020016040519081016040528093929190818152602001838380828437600081840152601f19601f820116905080830192505050505050509192919290803590602001906401000000008111156109b657600080fd5b8201836020820111156109c857600080fd5b803590602001918460018302840111640100000000831117156109ea57600080fd5b91908080601f016020809104026020016040519081016040528093929190818152602001838380828437600081840152601f19601f820116905080830192505050505050509192919290505050611f09565b005b610af760048036036020811015610a5457600080fd5b8101908080359060200190640100000000811115610a7157600080fd5b820183602082011115610a8357600080fd5b80359060200191846001830284011164010000000083111715610aa557600080fd5b91908080601f016020809104026020016040519081016040528093929190818152602001838380828437600081840152601f19601f820116905080830192505050505050509192919290505050612555565b6040518082815260200191505060405180910390f35b610bc660048036036020811015610b2357600080fd5b8101908080359060200190640100000000811115610b4057600080fd5b820183602082011115610b5257600080fd5b80359060200191846001830284011164010000000083111715610b7457600080fd5b91908080601f016020809104026020016040519081016040528093929190818152602001838380828437600081840152601f19601f820116905080830192505050505050509192919290505050612583565b6040518082815260200191505060405180910390f35b610cb560048036036040811015610bf257600080fd5b81019080803573ffffffffffffffffffffffffffffffffffffffff16906020019092919080359060200190640100000000811115610c2f57600080fd5b820183602082011115610c4157600080fd5b80359060200191846001830284011164010000000083111715610c6357600080fd5b91908080601f016020809104026020016040519081016040528093929190818152602001838380828437600081840152601f19601f8201169050808301925050505050505091929192905050506125f6565b604051808573ffffffffffffffffffffffffffffffffffffffff1673ffffffffffffffffffffffffffffffffffffffff168152602001806020018473ffffffffffffffffffffffffffffffffffffffff1673ffffffffffffffffffffffffffffffffffffffff168152602001838152602001828103825285818151815260200191508051906020019080838360005b83811015610d5f578082015181840152602081019050610d44565b50505050905090810190601f168015610d8c5780820380516001836020036101000a031916815260200191505b509550505050505060405180910390f35b610da5612952565b6040518080602001828103825283818151815260200191508051906020019080838360005b83811015610de5578082015181840152602081019050610dca565b50505050905090810190601f168015610e125780820380516001836020036101000a031916815260200191505b509250505060405180910390f35b610e4c60048036036020811015610e3657600080fd5b81019080803590602001909291905050506129f4565b6040518080602001828103825283818151815260200191508051906020019080838360005b83811015610e8c578082015181840152602081019050610e71565b50505050905090810190601f168015610eb95780820380516001836020036101000a031916815260200191505b509250505060405180910390f35b610f8060048036036020811015610edd57600080fd5b8101908080359060200190640100000000811115610efa57600080fd5b820183602082011115610f0c57600080fd5b80359060200191846001830284011164010000000083111715610f2e57600080fd5b91908080601f016020809104026020016040519081016040528093929190818152602001838380828437600081840152601f19601f820116905080830192505050505050509192919290505050612aa9565b6040518080602001806020018060200180602001806020018915151515815260200188815260200187815260200186810386528e818151815260200191508051906020019080838360005b83811015610fe6578082015181840152602081019050610fcb565b50505050905090810190601f1680156110135780820380516001836020036101000a031916815260200191505b5086810385528d818151815260200191508051906020019080838360005b8381101561104c578082015181840152602081019050611031565b50505050905090810190601f1680156110795780820380516001836020036101000a031916815260200191505b5086810384528c818151815260200191508051906020019080838360005b838110156110b2578082015181840152602081019050611097565b50505050905090810190601f1680156110df5780820380516001836020036101000a031916815260200191505b5086810383528b818151815260200191508051906020019080838360005b838110156111185780820151818401526020810190506110fd565b50505050905090810190601f1680156111455780820380516001836020036101000a031916815260200191505b5086810382528a818151815260200191508051906020019080838360005b8381101561117e578082015181840152602081019050611163565b50505050905090810190601f1680156111ab5780820380516001836020036101000a031916815260200191505b509d505050505050505050505050505060405180910390f35b6111cc6130c3565b6040518087815260200180602001806020018673ffffffffffffffffffffffffffffffffffffffff1673ffffffffffffffffffffffffffffffffffffffff168152602001858152602001848152602001838103835288818151815260200191508051906020019080838360005b83811015611254578082015181840152602081019050611239565b50505050905090810190601f1680156112815780820380516001836020036101000a031916815260200191505b50838103825287818151815260200191508051906020019080838360005b838110156112ba57808201518184015260208101905061129f565b50505050905090810190601f1680156112e75780820380516001836020036101000a031916815260200191505b509850505050505050505060405180910390f35b61146b6004803603606081101561131157600080fd5b81019080803573ffffffffffffffffffffffffffffffffffffffff1690602001909291908035906020019064010000000081111561134e57600080fd5b82018360208201111561136057600080fd5b8035906020019184600183028401116401000000008311171561138257600080fd5b91908080601f016020809104026020016040519081016040528093929190818152602001838380828437600081840152601f19601f820116905080830192505050505050509192919290803590602001906401000000008111156113e557600080fd5b8201836020820111156113f757600080fd5b8035906020019184600183028401116401000000008311171561141957600080fd5b91908080601f016020809104026020016040519081016040528093929190818152602001838380828437600081840152601f19601f820116905080830192505050505050509192919290505050613228565b005b6114996004803603602081101561148357600080fd5b8101908080359060200190929190505050613539565b6040518080602001828103825283818151815260200191508051906020019080838360005b838110156114d95780820151818401526020810190506114be565b50505050905090810190601f1680156115065780820380516001836020036101000a031916815260200191505b509250505060405180910390f35b6115cd6004803603602081101561152a57600080fd5b810190808035906020019064010000000081111561154757600080fd5b82018360208201111561155957600080fd5b8035906020019184600183028401116401000000008311171561157b57600080fd5b91908080601f016020809104026020016040519081016040528093929190818152602001838380828437600081840152601f19601f8201169050808301925050505050505091929192905050506135e9565b604051808215151515815260200191505060405180910390f35b6116a0600480360360208110156115fd57600080fd5b810190808035906020019064010000000081111561161a57600080fd5b82018360208201111561162c57600080fd5b8035906020019184600183028401116401000000008311171561164e57600080fd5b91908080601f016020809104026020016040519081016040528093929190818152602001838380828437600081840152601f19601f82011690508083019250505050505050919291929050505061361f565b6040518080602001828103825283818151815260200191508051906020019080838360005b838110156116e05780820151818401526020810190506116c5565b50505050905090810190601f16801561170d5780820380516001836020036101000a031916815260200191505b509250505060405180910390f35b6117f46004803603604081101561173157600080fd5b81019080803573ffffffffffffffffffffffffffffffffffffffff1690602001909291908035906020019064010000000081111561176e57600080fd5b82018360208201111561178057600080fd5b803590602001918460018302840111640100000000831117156117a257600080fd5b91908080601f016020809104026020016040519081016040528093929190818152602001838380828437600081840152601f19601f8201169050808301925050505050505091929192905050506136e5565b005b6118426004803603604081101561180c57600080fd5b81019080803573ffffffffffffffffffffffffffffffffffffffff16906020019092919080359060200190929190505050613a51565b6040518080602001828103825283818151815260200191508051906020019080838360005b83811015611882578082015181840152602081019050611867565b50505050905090810190601f1680156118af5780820380516001836020036101000a031916815260200191505b509250505060405180910390f35b6118e9600480360360208110156118d357600080fd5b8101908080359060200190929190505050613bab565b6040518080602001828103825283818151815260200191508051906020019080838360005b8381101561192957808201518184015260208101905061190e565b50505050905090810190601f1680156119565780820380516001836020036101000a031916815260200191505b509250505060405180910390f35b61196c613c5b565b6040518082815260200191505060405180910390f35b611a456004803603604081101561199857600080fd5b81019080803590602001906401000000008111156119b557600080fd5b8201836020820111156119c757600080fd5b803590602001918460018302840111640100000000831117156119e957600080fd5b91908080601f016020809104026020016040519081016040528093929190818152602001838380828437600081840152601f19601f82011690508083019250505050505050919291929080359060200190929190505050613c65565b604051808215151515815260200191505060405180910390f35b826001856040518082805190602001908083835b60208310611a965780518252602082019150602081019050602083039250611a73565b6001836020036101000a03801982511681845116808217855250505050505090500191505090815260200160405180910390208190555060008290508073ffffffffffffffffffffffffffffffffffffffff166307c09e3283866040518363ffffffff1660e01b81526004018080602001838152602001828103825284818151815260200191508051906020019080838360005b83811015611b45578082015181840152602081019050611b2a565b50505050905090810190601f168015611b725780820380516001836020036101000a031916815260200191505b509350505050600060405180830381600087803b158015611b9257600080fd5b505af1158015611ba6573d6000803e3d6000fd5b505050505050505050565b6000600a60009054906101000a900473ffffffffffffffffffffffffffffffffffffffff16905090565b6000826040518082805190602001908083835b60208310611c115780518252602082019150602081019050602083039250611bee565b6001836020036101000a038019825116818451168082178552505050505050905001915050908152602001604051809103902081908060018154018082558091505090600182039060005260206000209060209182820401919006909192909190916101000a81548160ff021916908315150217905550505050565b816002600060055481526020019081526020016000209080519060200190611cb6929190613cbb565b50806003836040518082805190602001908083835b60208310611cee5780518252602082019150602081019050602083039250611ccb565b6001836020036101000a03801982511681845116808217855250505050505090500191505090815260200160405180910390209080519060200190611d34929190613cbb565b5060006004836040518082805190602001908083835b60208310611d6d5780518252602082019150602081019050602083039250611d4a565b6001836020036101000a038019825116818451168082178552505050505050905001915050908152602001604051809103902060006101000a81548160ff0219169083151502179055506005600081548092919060010191905055505050565b606060006060600260008581526020019081526020016000208054600181600116156101000203166002900480601f016020809104026020016040519081016040528092919081815260200182805460018160011615610100020316600290048015611e7a5780601f10611e4f57610100808354040283529160200191611e7a565b820191906000526020600020905b815481529060010190602001808311611e5d57829003601f168201915b5050505050905060006004826040518082805190602001908083835b60208310611eb95780518252602082019150602081019050602083039250611e96565b6001836020036101000a038019825116818451168082178552505050505050905001915050908152602001604051809103902060009054906101000a900460ff1690508181935093505050915091565b611f11613d3b565b6040518060c0016040528089815260200187815260200186815260200185815260200184815260200183815250905080600b896040518082805190602001908083835b60208310611f775780518252602082019150602081019050602083039250611f54565b6001836020036101000a03801982511681845116808217855250505050505090500191505090815260200160405180910390206000820151816000019080519060200190611fc6929190613d71565b506020820151816001019080519060200190611fe3929190613d71565b506040820151816002019080519060200190612000929190613d71565b50606082015181600301908051906020019061201d929190613d71565b50608082015181600401908051906020019061203a929190613d71565b5060a0820151816005019080519060200190612057929190613d71565b509050506000886040518082805190602001908083835b60208310612091578051825260208201915060208101905060208303925061206e565b6001836020036101000a03801982511681845116808217855250505050505090500191505090815260200160405180910390206000908060018154018082558091505090600182039060005260206000209060209182820401919006909192909190916101000a81548160ff02191690831515021790555050876006600060075481526020019081526020016000209080519060200190612133929190613cbb565b5060076000815480929190600101919050555060016004896040518082805190602001908083835b6020831061217e578051825260208201915060208101905060208303925061215b565b6001836020036101000a038019825116818451168082178552505050505050905001915050908152602001604051809103902060006101000a81548160ff02191690831515021790555060008990508073ffffffffffffffffffffffffffffffffffffffff1663e6eae1458960088a8a8a8a8a6040518863ffffffff1660e01b8152600401808060200180602001806020018060200180602001806020018060200188810388528f818151815260200191508051906020019080838360005b8381101561225857808201518184015260208101905061223d565b50505050905090810190601f1680156122855780820380516001836020036101000a031916815260200191505b5088810387528e8181546001816001161561010002031660029004815260200191508054600181600116156101000203166002900480156123075780601f106122dc57610100808354040283529160200191612307565b820191906000526020600020905b8154815290600101906020018083116122ea57829003601f168201915b505088810386528d818151815260200191508051906020019080838360005b83811015612341578082015181840152602081019050612326565b50505050905090810190601f16801561236e5780820380516001836020036101000a031916815260200191505b5088810385528c818151815260200191508051906020019080838360005b838110156123a757808201518184015260208101905061238c565b50505050905090810190601f1680156123d45780820380516001836020036101000a031916815260200191505b5088810384528b818151815260200191508051906020019080838360005b8381101561240d5780820151818401526020810190506123f2565b50505050905090810190601f16801561243a5780820380516001836020036101000a031916815260200191505b5088810383528a818151815260200191508051906020019080838360005b83811015612473578082015181840152602081019050612458565b50505050905090810190601f1680156124a05780820380516001836020036101000a031916815260200191505b50888103825289818151815260200191508051906020019080838360005b838110156124d95780820151818401526020810190506124be565b50505050905090810190601f1680156125065780820380516001836020036101000a031916815260200191505b509e505050505050505050505050505050600060405180830381600087803b15801561253157600080fd5b505af1158015612545573d6000803e3d6000fd5b5050505050505050505050505050565b6001818051602081018201805184825260208301602085012081835280955050505050506000915090505481565b60006001826040518082805190602001908083835b602083106125bb5780518252602082019150602081019050602083039250612598565b6001836020036101000a0380198251168184511680821785525050505050509050019150509081526020016040518091039020549050919050565b60006060600080600086905060008173ffffffffffffffffffffffffffffffffffffffff1663bf40fac1886040518263ffffffff1660e01b81526004018080602001828103825283818151815260200191508051906020019080838360005b83811015612670578082015181840152602081019050612655565b50505050905090810190601f16801561269d5780820380516001836020036101000a031916815260200191505b509250505060206040518083038186803b1580156126ba57600080fd5b505afa1580156126ce573d6000803e3d6000fd5b505050506040513d60208110156126e457600080fd5b810190808051906020019092919050505090506000819050808173ffffffffffffffffffffffffffffffffffffffff1663674810f66040518163ffffffff1660e01b815260040160006040518083038186803b15801561274357600080fd5b505afa158015612757573d6000803e3d6000fd5b505050506040513d6000823e3d601f19601f82011682018060405250602081101561278157600080fd5b81019080805160405193929190846401000000008211156127a157600080fd5b838201915060208201858111156127b757600080fd5b82518660018202830111640100000000821117156127d457600080fd5b8083526020830192505050908051906020019080838360005b838110156128085780820151818401526020810190506127ed565b50505050905090810190601f1680156128355780820380516001836020036101000a031916815260200191505b506040525050508273ffffffffffffffffffffffffffffffffffffffff16630e2562d96040518163ffffffff1660e01b815260040160206040518083038186803b15801561288257600080fd5b505afa158015612896573d6000803e3d6000fd5b505050506040513d60208110156128ac57600080fd5b81019080805190602001909291905050508373ffffffffffffffffffffffffffffffffffffffff1663f196475a6040518163ffffffff1660e01b815260040160206040518083038186803b15801561290357600080fd5b505afa158015612917573d6000803e3d6000fd5b505050506040513d602081101561292d57600080fd5b8101908080519060200190929190505050965096509650965050505092959194509250565b606060098054600181600116156101000203166002900480601f0160208091040260200160405190810160405280929190818152602001828054600181600116156101000203166002900480156129ea5780601f106129bf576101008083540402835291602001916129ea565b820191906000526020600020905b8154815290600101906020018083116129cd57829003601f168201915b5050505050905090565b6060600660008381526020019081526020016000208054600181600116156101000203166002900480601f016020809104026020016040519081016040528092919081815260200182805460018160011615610100020316600290048015612a9d5780601f10612a7257610100808354040283529160200191612a9d565b820191906000526020600020905b815481529060010190602001808311612a8057829003601f168201915b50505050509050919050565b60608060608060606000806000612abe613d3b565b600b8a6040518082805190602001908083835b60208310612af45780518252602082019150602081019050602083039250612ad1565b6001836020036101000a03801982511681845116808217855250505050505090500191505090815260200160405180910390206040518060c0016040529081600082018054600181600116156101000203166002900480601f016020809104026020016040519081016040528092919081815260200182805460018160011615610100020316600290048015612bcb5780601f10612ba057610100808354040283529160200191612bcb565b820191906000526020600020905b815481529060010190602001808311612bae57829003601f168201915b50505050508152602001600182018054600181600116156101000203166002900480601f016020809104026020016040519081016040528092919081815260200182805460018160011615610100020316600290048015612c6d5780601f10612c4257610100808354040283529160200191612c6d565b820191906000526020600020905b815481529060010190602001808311612c5057829003601f168201915b50505050508152602001600282018054600181600116156101000203166002900480601f016020809104026020016040519081016040528092919081815260200182805460018160011615610100020316600290048015612d0f5780601f10612ce457610100808354040283529160200191612d0f565b820191906000526020600020905b815481529060010190602001808311612cf257829003601f168201915b50505050508152602001600382018054600181600116156101000203166002900480601f016020809104026020016040519081016040528092919081815260200182805460018160011615610100020316600290048015612db15780601f10612d8657610100808354040283529160200191612db1565b820191906000526020600020905b815481529060010190602001808311612d9457829003601f168201915b50505050508152602001600482018054600181600116156101000203166002900480601f016020809104026020016040519081016040528092919081815260200182805460018160011615610100020316600290048015612e535780601f10612e2857610100808354040283529160200191612e53565b820191906000526020600020905b815481529060010190602001808311612e3657829003601f168201915b50505050508152602001600582018054600181600116156101000203166002900480601f016020809104026020016040519081016040528092919081815260200182805460018160011615610100020316600290048015612ef55780601f10612eca57610100808354040283529160200191612ef5565b820191906000526020600020905b815481529060010190602001808311612ed857829003601f168201915b50505050508152505090506000600160008c6040518082805190602001908083835b60208310612f3a5780518252602082019150602081019050602083039250612f17565b6001836020036101000a0380198251168184511680821785525050505050509050019150509081526020016040518091039020805490500390506000808c6040518082805190602001908083835b60208310612fab5780518252602082019150602081019050602083039250612f88565b6001836020036101000a03801982511681845116808217855250505050505090500191505090815260200160405180910390208281548110612fe957fe5b90600052602060002090602091828204019190069054906101000a900460ff169050600060018d6040518082805190602001908083835b602083106130435780518252602082019150602081019050602083039250613020565b6001836020036101000a038019825116818451168082178552505050505050905001915050908152602001604051809103902054905083602001518460400151856060015186608001518760a001518688878797508696508595508494508393509b509b509b509b509b509b509b509b5050505050919395975091939597565b60006060806000806000600754600860093360055443848054600181600116156101000203166002900480601f01602080910402602001604051908101604052809291908181526020018280546001816001161561010002031660029004801561316e5780601f106131435761010080835404028352916020019161316e565b820191906000526020600020905b81548152906001019060200180831161315157829003601f168201915b50505050509450838054600181600116156101000203166002900480601f01602080910402602001604051908101604052809291908181526020018280546001816001161561010002031660029004801561320a5780601f106131df5761010080835404028352916020019161320a565b820191906000526020600020905b8154815290600101906020018083116131ed57829003601f168201915b50505050509350829250955095509550955095509550909192939495565b6000816040518082805190602001908083835b6020831061325e578051825260208201915060208101905060208303925061323b565b6001836020036101000a03801982511681845116808217855250505050505090500191505090815260200160405180910390206001908060018154018082558091505090600182039060005260206000209060209182820401919006909192909190916101000a81548160ff02191690831515021790555050600083905060008173ffffffffffffffffffffffffffffffffffffffff1663bf40fac1856040518263ffffffff1660e01b81526004018080602001828103825283818151815260200191508051906020019080838360005b8381101561334a57808201518184015260208101905061332f565b50505050905090810190601f1680156133775780820380516001836020036101000a031916815260200191505b509250505060206040518083038186803b15801561339457600080fd5b505afa1580156133a8573d6000803e3d6000fd5b505050506040513d60208110156133be57600080fd5b8101908080519060200190929190505050905060008190508073ffffffffffffffffffffffffffffffffffffffff16632042ac608560086040518363ffffffff1660e01b8152600401808060200180602001838103835285818151815260200191508051906020019080838360005b8381101561344857808201518184015260208101905061342d565b50505050905090810190601f1680156134755780820380516001836020036101000a031916815260200191505b508381038252848181546001816001161561010002031660029004815260200191508054600181600116156101000203166002900480156134f75780601f106134cc576101008083540402835291602001916134f7565b820191906000526020600020905b8154815290600101906020018083116134da57829003601f168201915b5050945050505050600060405180830381600087803b15801561351957600080fd5b505af115801561352d573d6000803e3d6000fd5b50505050505050505050565b60026020528060005260406000206000915090508054600181600116156101000203166002900480601f0160208091040260200160405190810160405280929190818152602001828054600181600116156101000203166002900480156135e15780601f106135b6576101008083540402835291602001916135e1565b820191906000526020600020905b8154815290600101906020018083116135c457829003601f168201915b505050505081565b6004818051602081018201805184825260208301602085012081835280955050505050506000915054906101000a900460ff1681565b6003818051602081018201805184825260208301602085012081835280955050505050506000915090508054600181600116156101000203166002900480601f0160208091040260200160405190810160405280929190818152602001828054600181600116156101000203166002900480156136dd5780601f106136b2576101008083540402835291602001916136dd565b820191906000526020600020905b8154815290600101906020018083116136c057829003601f168201915b505050505081565b600082905060606003836040518082805190602001908083835b6020831061372257805182526020820191506020810190506020830392506136ff565b6001836020036101000a03801982511681845116808217855250505050505090500191505090815260200160405180910390208054600181600116156101000203166002900480601f0160208091040260200160405190810160405280929190818152602001828054600181600116156101000203166002900480156137e95780601f106137be576101008083540402835291602001916137e9565b820191906000526020600020905b8154815290600101906020018083116137cc57829003601f168201915b5050505050905060016004846040518082805190602001908083835b602083106138285780518252602082019150602081019050602083039250613805565b6001836020036101000a038019825116818451168082178552505050505050905001915050908152602001604051809103902060006101000a81548160ff02191690831515021790555060008273ffffffffffffffffffffffffffffffffffffffff1663bf40fac1836040518263ffffffff1660e01b81526004018080602001828103825283818151815260200191508051906020019080838360005b838110156138e05780820151818401526020810190506138c5565b50505050905090810190601f16801561390d5780820380516001836020036101000a031916815260200191505b509250505060206040518083038186803b15801561392a57600080fd5b505afa15801561393e573d6000803e3d6000fd5b505050506040513d602081101561395457600080fd5b8101908080519060200190929190505050905060008190508073ffffffffffffffffffffffffffffffffffffffff166313009e118660006040518363ffffffff1660e01b8152600401808060200183151515158152602001828103825284818151815260200191508051906020019080838360005b838110156139e45780820151818401526020810190506139c9565b50505050905090810190601f168015613a115780820380516001836020036101000a031916815260200191505b509350505050600060405180830381600087803b158015613a3157600080fd5b505af1158015613a45573d6000803e3d6000fd5b50505050505050505050565b606060008390508073ffffffffffffffffffffffffffffffffffffffff1663972fe8bc846040518263ffffffff1660e01b81526004018082815260200191505060006040518083038186803b158015613aa957600080fd5b505afa158015613abd573d6000803e3d6000fd5b505050506040513d6000823e3d601f19601f820116820180604052506020811015613ae757600080fd5b8101908080516040519392919084640100000000821115613b0757600080fd5b83820191506020820185811115613b1d57600080fd5b8251866001820283011164010000000082111715613b3a57600080fd5b8083526020830192505050908051906020019080838360005b83811015613b6e578082015181840152602081019050613b53565b50505050905090810190601f168015613b9b5780820380516001836020036101000a031916815260200191505b5060405250505091505092915050565b60066020528060005260406000206000915090508054600181600116156101000203166002900480601f016020809104026020016040519081016040528092919081815260200182805460018160011615610100020316600290048015613c535780601f10613c2857610100808354040283529160200191613c53565b820191906000526020600020905b815481529060010190602001808311613c3657829003601f168201915b505050505081565b6000600554905090565b6000828051602081018201805184825260208301602085012081835280955050505050508181548110613c9457fe5b9060005260206000209060209182820401919006915091509054906101000a900460ff1681565b828054600181600116156101000203166002900490600052602060002090601f016020900481019282601f10613cfc57805160ff1916838001178555613d2a565b82800160010185558215613d2a579182015b82811115613d29578251825591602001919060010190613d0e565b5b509050613d379190613df1565b5090565b6040518060c001604052806060815260200160608152602001606081526020016060815260200160608152602001606081525090565b828054600181600116156101000203166002900490600052602060002090601f016020900481019282601f10613db257805160ff1916838001178555613de0565b82800160010185558215613de0579182015b82811115613ddf578251825591602001919060010190613dc4565b5b509050613ded9190613df1565b5090565b613e1391905b80821115613e0f576000816000905550600101613df7565b5090565b9056fea265627a7a723158206ade6602752c80fe4c2869cee55fd231a4c23e0c7554cf36ccded7f91390c52364736f6c63430005100032",
  "source": "pragma solidity ^0.5.0;\nimport \"./AdminContract.sol\";\n\ncontract InfoContract {\n\n    mapping(string => UserContract) userList;\n    mapping(string => string) accountList;\n    mapping(uint => string) accountsList;\n\n    uint restaurant = 0;\n    uint customer = 100;\n\n    function createUser(string memory email, string memory password, string memory companyType, address accountAddress) public{\n        UserContract user = new UserContract(email, companyType, accountAddress);\n        accountList[email] = password;\n        userList[email] = user;\n        if(keccak256(abi.encodePacked(companyType)) == keccak256(abi.encodePacked(\"Restaurant\"))) {\n            accountsList[restaurant] = email;\n            restaurant++;\n        }else if(keccak256(abi.encodePacked(companyType)) == keccak256(abi.encodePacked(\"Customer\"))) {\n            accountsList[customer] = email;\n            customer++;\n        }\n\n    }\n\n    function login(string memory email, string memory password) public view returns(address, string memory, uint, address) {\n        uint temp = 1024;\n        if(keccak256(abi.encodePacked(accountList[email])) == keccak256(abi.encodePacked(password))) {\n            UserContract user = userList[email];\n\n            if(user.getAccountAddress() == msg.sender) {\n                if(keccak256(abi.encodePacked(user.getCompanyType())) == keccak256(abi.encodePacked(\"Restaurant\")))\n                    return ( address(user), user.getCompanyType(),customer, address(this));\n                else if(keccak256(abi.encodePacked(user.getCompanyType())) != keccak256(abi.encodePacked(\"Customer\")))\n                    return (address(user), user.getCompanyType(), restaurant, address(this));\n                else\n                    return (address(user), user.getCompanyType(),temp, address(this));\n            }else {\n                return (address(user), \" \", temp, address(this));\n            }\n\n        }else {\n            return (address(0),\"404\", temp, address(this));\n        }\n\n    }\n\n    function admin() public view returns(address) {\n        return msg.sender;\n    }\n\n    function getEmail(uint index)public view returns(string memory ) {\n        return accountsList[index];\n    }\n\n    function getAddress(string memory email )public view returns(address) {\n        UserContract user = userList[email];\n        return address(user);\n    }\n\n}\n\n\n\ncontract UserContract {\n\n    struct Info {\n            string fishId;\n            string companyInfo;\n            string city;\n            string freshness;\n            string ipfs;\n            string time;\n    }\n    mapping(string => bool[]) public isSentMap;\n    mapping(string => bytes32) public transactionIdMap;\n\n    //event Detail(string fishId, string ipfs, string time,  bytes32 hash);\n\n    mapping(uint => string) public acceptedIdList;\n    mapping(string => string) public fishIdEmailMap;\n    mapping(string => bool) public fishIdIsUsedMap;\n    uint _accepted = 0;\n\n    mapping(uint => string) public fishIdList;\n    uint _index = 0;\n\n    string _email;\n    string _companyType;\n    address _accountAddress;\n\n    constructor(string memory email, string memory companyType, address accountAddress) public {\n        _email = email;\n        _companyType = companyType;\n        _accountAddress = accountAddress;\n    }\n\n    mapping(string => Info) infoList;\n\n    //AdminContract admin = AdminContract(0xC190892d9dD560AcFb26870fb920d048acb4D523);\n    //InfoContract _info = InfoContract(0xCB7D81431576984e494e1294dff3E023b22Ce407);\n\n    // add info\n        function addInfo(address adminAddress, string memory fishId, string memory idAndType, string memory company, string memory city, string memory freshness,string memory ipfs, string memory time) public{\n\n            Info memory info = Info(fishId, company,city,freshness,ipfs, time);\n            infoList[fishId] = info;\n            isSentMap[fishId].push(false);\n\n            fishIdList[_index] = fishId;\n            _index++;\n\n            fishIdIsUsedMap[fishId] = true;\n\n            AdminContract admin = AdminContract(adminAddress);\n            admin.addInfo(idAndType, _email, company, city,freshness,ipfs,  time);\n\n        }\n\n        function getIndex() public view returns(uint, string memory, string memory, address, uint, uint) {\n            return (_index, _email,_companyType, msg.sender, _accepted, block.number);\n        }\n\n        function getFishIdList(uint index) public view returns(string memory) {\n            return fishIdList[index];\n        }\n\n\n        function getInfo(string memory fishId) public view returns (string memory, string memory, string memory,string memory, string memory, bool, uint, bytes32) {\n            Info memory info = infoList[fishId];\n            uint i = isSentMap[fishId].length - 1;\n            bool isSent = isSentMap[fishId][i];\n            bytes32 hash = transactionIdMap[fishId];\n            return (info.companyInfo, info.city, info.freshness, info.ipfs, info.time, isSent, i, hash);\n        }\n\n        function getCompanyType() public view returns(string memory) {\n            return _companyType;\n        }\n\n        function getAccountAddress() public view returns(address ) {\n            return _accountAddress;\n        }\n\n        function getEmail(address infoAddress, uint index) public view returns(string memory ) {\n            InfoContract info = InfoContract(infoAddress);\n            return info.getEmail(index);\n        }\n\n        function sendToEmail(address infoAddress,string memory email, string memory fishId) public{\n            isSentMap[fishId].push(true);\n\n            InfoContract info = InfoContract(infoAddress);\n            address userAddress = info.getAddress(email);\n            UserContract user = UserContract(userAddress);\n            //addAccepted();\n            //user.addAccepted();\n            user.acceptFishId(fishId, _email);\n            //return user.getCompanyType();\n\n        }\n\n        function getNextAll(address infoAddress, string memory email) public view returns(address, string memory,address, uint) {\n            InfoContract info = InfoContract(infoAddress);\n            address userAddress = info.getAddress(email);\n            UserContract user = UserContract(userAddress);\n            return (address(user), user.getCompanyType(),user.getAccountAddress(), user.getAccepted());\n        }\n\n        function getAccepted() public view returns(uint) {\n            return _accepted;\n        }\n\n        function acceptFishId(string memory fishId, string memory email) public{\n            acceptedIdList[_accepted] = fishId;\n            fishIdEmailMap[fishId] = email;\n            fishIdIsUsedMap[fishId] = false;\n            _accepted++;\n        }\n\n        function getAcceptedFishInfo(uint accepted) public view returns(string memory,bool ) {\n            string memory fishId = acceptedIdList[accepted];\n            bool isUsed = fishIdIsUsedMap[fishId];\n            return (fishId, isUsed);\n        }\n\n        function rejectFishId(address infoAddress,string memory fishId) public {\n            InfoContract info = InfoContract(infoAddress);\n            string memory email = fishIdEmailMap[fishId];\n\n            fishIdIsUsedMap[fishId] = true;\n\n            address userAddress = info.getAddress(email);\n            UserContract user = UserContract(userAddress);\n            user.changeInfoStatus(fishId, false);\n\n        }\n\n        function changeInfoStatus(string memory fishId, bool isSent) public {\n            //Info memory info = infoList[fishId];\n            isSentMap[fishId].push(isSent);\n            //infoList[fishId] = Info(info.fishId, info.companyInfo,info.city,info.freshness,info.time);\n        }\n\n        function saveHash(string memory fishId, bytes32 hash, address adminAddress, string memory idAndType) public {\n            transactionIdMap[fishId] = hash;\n            AdminContract admin = AdminContract(adminAddress);\n            admin.saveHash(idAndType, hash);\n        }\n\n        function getHash(string memory fishId) public view returns (bytes32) {\n            return transactionIdMap[fishId];\n        }\n\n\n\n\n}\n\n\n",
  "sourcePath": "/Users/ricardo/Desktop/seafood_blockchain/contracts/InfoContract.sol",
  "compiler": {
    "name": "solc",
    "version": "0.5.16+commit.9c3226ce.Emscripten.clang"
  },
  "schemaVersion": "3.0.23",
  "updatedAt": "2020-04-29T14:00:48.338Z",
  "devdoc": {
    "methods": {}
  },
  "userdoc": {
    "methods": {}
  }
}